{"abi":[{"type":"function","name":"MAX_SLIPPAGE_BPS","inputs":[],"outputs":[{"name":"","type":"uint256","internalType":"uint256"}],"stateMutability":"view"},{"type":"function","name":"UPGRADE_DELAY","inputs":[],"outputs":[{"name":"","type":"uint256","internalType":"uint256"}],"stateMutability":"view"},{"type":"function","name":"addRWAToWhitelist","inputs":[{"name":"rwaToken","type":"address","internalType":"address"},{"name":"name","type":"string","internalType":"string"}],"outputs":[],"stateMutability":"nonpayable"},{"type":"function","name":"cancelScheduledUpgrade","inputs":[],"outputs":[],"stateMutability":"nonpayable"},{"type":"function","name":"deposit","inputs":[{"name":"usdcAmount","type":"uint256","internalType":"uint256"}],"outputs":[{"name":"shares","type":"uint256","internalType":"uint256"}],"stateMutability":"nonpayable"},{"type":"function","name":"emergencyPause","inputs":[{"name":"reason","type":"string","internalType":"string"}],"outputs":[],"stateMutability":"nonpayable"},{"type":"function","name":"emergencyWithdrawAll","inputs":[{"name":"recipient","type":"address","internalType":"address"}],"outputs":[],"stateMutability":"nonpayable"},{"type":"function","name":"executeScheduledUpgrade","inputs":[{"name":"minAssetsOut","type":"uint256","internalType":"uint256"}],"outputs":[],"stateMutability":"nonpayable"},{"type":"function","name":"getBestAPY","inputs":[],"outputs":[{"name":"bestAPY","type":"uint256","internalType":"uint256"},{"name":"bestRWA","type":"address","internalType":"address"}],"stateMutability":"view"},{"type":"function","name":"getCurrentAPY","inputs":[],"outputs":[{"name":"apy","type":"uint256","internalType":"uint256"}],"stateMutability":"view"},{"type":"function","name":"getCurrentRWA","inputs":[],"outputs":[{"name":"rwa","type":"address","internalType":"address"}],"stateMutability":"view"},{"type":"function","name":"getPendingUpgrade","inputs":[],"outputs":[{"name":"newRWA","type":"address","internalType":"address"},{"name":"executeAfter","type":"uint256","internalType":"uint256"},{"name":"canExecute","type":"bool","internalType":"bool"}],"stateMutability":"view"},{"type":"function","name":"getRWAInfo","inputs":[{"name":"rwa","type":"address","internalType":"address"}],"outputs":[{"name":"name","type":"string","internalType":"string"},{"name":"tokenAddress","type":"address","internalType":"address"},{"name":"isActive","type":"bool","internalType":"bool"},{"name":"addedTimestamp","type":"uint256","internalType":"uint256"}],"stateMutability":"view"},{"type":"function","name":"getTotalAssets","inputs":[],"outputs":[{"name":"total","type":"uint256","internalType":"uint256"}],"stateMutability":"view"},{"type":"function","name":"getTotalShares","inputs":[],"outputs":[{"name":"total","type":"uint256","internalType":"uint256"}],"stateMutability":"view"},{"type":"function","name":"getUserShares","inputs":[{"name":"user","type":"address","internalType":"address"}],"outputs":[{"name":"balance","type":"uint256","internalType":"uint256"}],"stateMutability":"view"},{"type":"function","name":"getWhitelistedRWAs","inputs":[],"outputs":[{"name":"rwas","type":"address[]","internalType":"address[]"}],"stateMutability":"view"},{"type":"function","name":"initialize","inputs":[{"name":"_usdcToken","type":"address","internalType":"address"},{"name":"_initialRWA","type":"address","internalType":"address"},{"name":"_rwaName","type":"string","internalType":"string"}],"outputs":[],"stateMutability":"nonpayable"},{"type":"function","name":"isPaused","inputs":[],"outputs":[{"name":"","type":"bool","internalType":"bool"}],"stateMutability":"view"},{"type":"function","name":"isRWAWhitelisted","inputs":[{"name":"rwa","type":"address","internalType":"address"}],"outputs":[{"name":"isWhitelisted","type":"bool","internalType":"bool"}],"stateMutability":"view"},{"type":"function","name":"previewDeposit","inputs":[{"name":"assets","type":"uint256","internalType":"uint256"}],"outputs":[{"name":"shares","type":"uint256","internalType":"uint256"}],"stateMutability":"view"},{"type":"function","name":"previewWithdraw","inputs":[{"name":"shares","type":"uint256","internalType":"uint256"}],"outputs":[{"name":"assets","type":"uint256","internalType":"uint256"}],"stateMutability":"view"},{"type":"function","name":"processQueuedWithdrawals","inputs":[],"outputs":[],"stateMutability":"nonpayable"},{"type":"function","name":"removeRWAFromWhitelist","inputs":[{"name":"rwaToken","type":"address","internalType":"address"}],"outputs":[],"stateMutability":"nonpayable"},{"type":"function","name":"requestWithdrawal","inputs":[{"name":"shares","type":"uint256","internalType":"uint256"}],"outputs":[{"name":"requestId","type":"uint256","internalType":"uint256"}],"stateMutability":"nonpayable"},{"type":"function","name":"scheduleUpgrade","inputs":[{"name":"newRWA","type":"address","internalType":"address"}],"outputs":[],"stateMutability":"nonpayable"},{"type":"function","name":"setMinDeposit","inputs":[{"name":"_minDeposit","type":"uint256","internalType":"uint256"}],"outputs":[],"stateMutability":"nonpayable"},{"type":"function","name":"setPause","inputs":[{"name":"_pause","type":"bool","internalType":"bool"}],"outputs":[],"stateMutability":"nonpayable"},{"type":"function","name":"upgradeToRWA","inputs":[{"name":"newRWA","type":"address","internalType":"address"}],"outputs":[],"stateMutability":"nonpayable"},{"type":"function","name":"withdraw","inputs":[{"name":"shares","type":"uint256","internalType":"uint256"}],"outputs":[{"name":"assets","type":"uint256","internalType":"uint256"}],"stateMutability":"nonpayable"},{"type":"function","name":"withdrawFor","inputs":[{"name":"user","type":"address","internalType":"address"},{"name":"shares","type":"uint256","internalType":"uint256"}],"outputs":[],"stateMutability":"nonpayable"},{"type":"event","name":"Deposit","inputs":[{"name":"user","type":"address","indexed":true,"internalType":"address"},{"name":"assets","type":"uint256","indexed":false,"internalType":"uint256"},{"name":"shares","type":"uint256","indexed":false,"internalType":"uint256"}],"anonymous":false},{"type":"event","name":"EmergencyPaused","inputs":[{"name":"reason","type":"string","indexed":false,"internalType":"string"},{"name":"by","type":"address","indexed":false,"internalType":"address"}],"anonymous":false},{"type":"event","name":"Initialized","inputs":[{"name":"version","type":"uint64","indexed":false,"internalType":"uint64"}],"anonymous":false},{"type":"event","name":"RWARemoved","inputs":[{"name":"rwaToken","type":"address","indexed":true,"internalType":"address"}],"anonymous":false},{"type":"event","name":"RWAWhitelisted","inputs":[{"name":"rwaToken","type":"address","indexed":true,"internalType":"address"},{"name":"name","type":"string","indexed":false,"internalType":"string"}],"anonymous":false},{"type":"event","name":"SlippageProtectionTriggered","inputs":[{"name":"expected","type":"uint256","indexed":false,"internalType":"uint256"},{"name":"actual","type":"uint256","indexed":false,"internalType":"uint256"},{"name":"slippage","type":"uint256","indexed":false,"internalType":"uint256"}],"anonymous":false},{"type":"event","name":"StrategyUpgraded","inputs":[{"name":"oldRWA","type":"address","indexed":true,"internalType":"address"},{"name":"newRWA","type":"address","indexed":true,"internalType":"address"},{"name":"newAPY","type":"uint256","indexed":false,"internalType":"uint256"},{"name":"timestamp","type":"uint256","indexed":false,"internalType":"uint256"}],"anonymous":false},{"type":"event","name":"UpgradeCancelled","inputs":[{"name":"newRWA","type":"address","indexed":true,"internalType":"address"}],"anonymous":false},{"type":"event","name":"UpgradeScheduled","inputs":[{"name":"newRWA","type":"address","indexed":true,"internalType":"address"},{"name":"executeAfter","type":"uint256","indexed":false,"internalType":"uint256"}],"anonymous":false},{"type":"event","name":"VaultPauseChanged","inputs":[{"name":"isPaused","type":"bool","indexed":false,"internalType":"bool"}],"anonymous":false},{"type":"event","name":"Withdraw","inputs":[{"name":"user","type":"address","indexed":true,"internalType":"address"},{"name":"shares","type":"uint256","indexed":false,"internalType":"uint256"},{"name":"assets","type":"uint256","indexed":false,"internalType":"uint256"}],"anonymous":false},{"type":"event","name":"WithdrawalProcessed","inputs":[{"name":"user","type":"address","indexed":true,"internalType":"address"},{"name":"shares","type":"uint256","indexed":false,"internalType":"uint256"},{"name":"assets","type":"uint256","indexed":false,"internalType":"uint256"}],"anonymous":false},{"type":"event","name":"WithdrawalQueued","inputs":[{"name":"user","type":"address","indexed":true,"internalType":"address"},{"name":"shares","type":"uint256","indexed":false,"internalType":"uint256"},{"name":"requestId","type":"uint256","indexed":false,"internalType":"uint256"}],"anonymous":false},{"type":"error","name":"AddressEmptyCode","inputs":[{"name":"target","type":"address","internalType":"address"}]},{"type":"error","name":"AddressInsufficientBalance","inputs":[{"name":"account","type":"address","internalType":"address"}]},{"type":"error","name":"DepositTooSmall","inputs":[{"name":"amount","type":"uint256","internalType":"uint256"},{"name":"minimum","type":"uint256","internalType":"uint256"}]},{"type":"error","name":"Diamond_NotGovernance","inputs":[]},{"type":"error","name":"Diamond_UnauthorizedCaller","inputs":[]},{"type":"error","name":"FailedInnerCall","inputs":[]},{"type":"error","name":"InsufficientShares","inputs":[{"name":"requested","type":"uint256","internalType":"uint256"},{"name":"balance","type":"uint256","internalType":"uint256"}]},{"type":"error","name":"InvalidInitialization","inputs":[]},{"type":"error","name":"NoActiveStrategy","inputs":[]},{"type":"error","name":"NotInitializing","inputs":[]},{"type":"error","name":"RWAAlreadyWhitelisted","inputs":[{"name":"rwa","type":"address","internalType":"address"}]},{"type":"error","name":"RWANotWhitelisted","inputs":[{"name":"rwa","type":"address","internalType":"address"}]},{"type":"error","name":"ReentrancyGuardReentrantCall","inputs":[]},{"type":"error","name":"SafeERC20FailedOperation","inputs":[{"name":"token","type":"address","internalType":"address"}]},{"type":"error","name":"VaultPaused","inputs":[]},{"type":"error","name":"ZeroAddress","inputs":[]},{"type":"error","name":"ZeroAmount","inputs":[]}],"bytecode":{"object":"0x6080806040523461001657612752908161001b8239f35b5f80fdfe60808060405260049081361015610014575f80fd5b5f3560e01c908163063e94fb1461167d575080630a28a4771461165f5780630c80447a1461152a5780630cfd6431146114af5780632914eb36146114845780632b464dc2146111d25780632e1a7d4d1461118a5780634571e3a614610eac57806347fe8b1d14610e8f5780634d2bc65714610dbc57806354ab626914610d0b5780636e07302b14610ce25780638fcc9cfb14610c8d57806393e3907614610bfc57806394cb4bc014610b19578063962ca49614610ae557806397379d6414610a495780639ee679e814610a2b578063a41cb07f146107fb578063b187bd26146107cd578063b6b55f251461061d578063ba0cb22b146105f1578063bedb86fb14610594578063cf5b4fd5146104d7578063d5002f2e146104ae578063d74dc3951461047d578063db518db214610414578063de34cea714610314578063e229cd76146102f9578063ec6a16531461019c5763ef8b30f714610173575f80fd5b3461019857602036600319011261019857610190602091356123e5565b604051908152f35b5f80fd5b3461019857602080600319360112610198576101be6101b96116ac565b611749565b90604051916101cc83611867565b60405192835f83546101dd8161192f565b90818452600190876001821691825f146102d757505060011461029b575b50509461020c9193929503836118bb565b818452606060018201549160018060a01b038316958686820152600260ff60a09560a01c1615159283604084015201549283910152604051958694608086528051948560808801525f5b8681106102855750505060a0955f87868801015285015260408401526060830152601f80199101168101030190f35b8083018901518a82018301528997508801610256565b90869250855f52825f20915f925b8284106102bf575050508201018161020c6101fb565b8054848b0186015289955088949093019281016102a9565b60ff19168682015292151560051b8501909201925083915061020c90506101fb565b34610198575f36600319011261019857602060405160648152f35b50346101985760203660031901126101985761032e6116ac565b5f8051602061261d833981519152546001600160a01b039290831633036104055761035882611bae565b5f8051602061263d83398151915254828416931683146103c1575061038f81610382600193611711565b805460ff19169055611749565b01805460ff60a01b191690557fa0fd8c1585c511eb3f42ef0c0d088cc63b187e98b8a52bcec6333b4e306c621e5f80a2005b60649060206040519162461bcd60e51b8352820152601860248201527f43616e6e6f742072656d6f7665206163746976652052574100000000000000006044820152fd5b6040516313feb0df60e11b8152fd5b50346101985760403660031901126101985761042e6116ac565b9030330361044d5761044b82610442611d11565b60243590611d48565b005b60649060206040519162461bcd60e51b8352820152600960248201526827b7363c9039b2b63360b91b6044820152fd5b3461019857602036600319011261019857602060ff6104a261049d6116ac565b611711565b54166040519015158152f35b34610198575f3660031901126101985760205f8051602061265d83398151915254604051908152f35b503461019857602036600319011261019857803567ffffffffffffffff81116101985761050790369083016116c2565b5f8051602061261d833981519152546001600160a01b03163303610583577f96c67e86903dce2b2b94d9d1a98e3417b02ad1a12d3f28a268a19082bdb787ad92505f805160206126fd833981519152600160ff19825416179055610578604051928392604084526040840191611967565b3360208301520390a1005b6040516313feb0df60e11b81528390fd5b503461019857602036600319011261019857803590811515809203610198575f8051602061261d833981519152546001600160a01b0316330361040557505f805160206126fd8339815191529060ff801983541691161790555f80f35b3461019857602036600319011261019857602061061461060f6116ac565b611781565b54604051908152f35b5034610198576020366003190112610198578035610639611b7f565b610641611d11565b7f72d144bf2a7eedf61fc6d630de1bca192fde78e6cc73628209c6750037a7658b548082106107b15750610674816123e5565b905f8051602061265d83398151915261068e8382546116f0565b90555f8051602061267d8339815191526106a98282546116f0565b90556106b433611781565b6106bf8382546116f0565b90555f805160206126dd833981519152546040516323b872dd60e01b602082015233602482015230604482015260648082018490528152936001600160a01b039182169060a086019067ffffffffffffffff82118783101761079e575060405260209461072b91612508565b5f8051602061263d8339815191525416818161078e575b505060405190815281838201527f90890809c654f11d6e72a28fa60149770a0d11ec6c92319d6ceb2bb0a4ea1a1560403392a260015f805160206126bd83398151915255604051908152f35b61079791612049565b5f81610742565b604190634e487b7160e01b5f525260245ffd5b604492916040519263253bf97d60e11b84528301526024820152fd5b34610198575f36600319011261019857602060ff5f805160206126fd83398151915254166040519015158152f35b5034610198576020366003190112610198573033141580610a0a575b6109fb57610823611b7f565b5f805160206125fd83398151915280545f805160206125dd83398151915280549293909290916001600160a01b039161085f8383161515611987565b6201518081018091116109755742106109c05761089c5f8051602061267d833981519152918254935f8051602061263d8339815191525416611be5565b549082358210610988576108b08282611d3b565b6127109081810291818304149015171561097557816108ce91611b22565b926064841161093a5750915f94918593826108fc575b505050555560015f805160206126bd83398151915255005b7f879b5b22526d798a971784100ab26ef8dd6428a9d2809e3c9f32d6c3dbf015f49260609260405192835260208301526040820152a15f80806108e4565b60649060206040519162461bcd60e51b8352820152601460248201527345786365656473206d617820736c69707061676560601b6044820152fd5b601184634e487b7160e01b5f525260245ffd5b60405162461bcd60e51b815260208185015260116024820152700a6d8d2e0e0c2ceca40e8dede40d0d2ced607b1b6044820152606490fd5b60405162461bcd60e51b81526020818501526014602482015273151a5b595b1bd8dac81b9bdd08195e1c1a5c995960621b6044820152606490fd5b604051636ff5618f60e01b8152fd5b505f8051602061261d833981519152546001600160a01b0316331415610817565b503461019857602036600319011261019857610190602091356119ca565b5034610198575f366003190112610198573033141580610ac4575b6109fb575f805160206125fd8339815191525f815491555f5f805160206125dd8339815191525560018060a01b0316610a9e811515611987565b7f3198dc80249fcfedbd0d06e1ff49a7695a51b006592328ce0b127cdeab77e9365f80a2005b505f8051602061261d833981519152546001600160a01b0316331415610a64565b34610198575f366003190112610198575f8051602061263d83398151915254602090610190906001600160a01b03166122be565b34610198575f36600319011261019857604051807f72d144bf2a7eedf61fc6d630de1bca192fde78e6cc73628209c6750037a76588805480845260208094019081925f527fdce921373527c07f81d3a946e9918069f28d9563e609e05076b1b3aa9b077506905f5b86828210610bdf578686610b97828803836118bb565b60405192839281840190828552518091526040840192915f5b828110610bbf57505050500390f35b83516001600160a01b031685528695509381019392810192600101610bb0565b83546001600160a01b031685529093019260019283019201610b81565b5034610198575f366003190112610198575f805160206125fd833981519152545f805160206125dd833981519152546001600160a01b03909116905f90819083610c5a575b5060609350604051928352602083015215156040820152f35b80925062015180915001809111610c7a576060925080421015905f610c41565b601183634e487b7160e01b5f525260245ffd5b5034610198576020366003190112610198575f8051602061261d833981519152546001600160a01b0316330361040557357f72d144bf2a7eedf61fc6d630de1bca192fde78e6cc73628209c6750037a7658b55005b34610198575f3660031901126101985760205f8051602061267d83398151915254604051908152f35b503461019857602036600319011261019857610d256116ac565b505f8051602061261d833981519152546001600160a01b039190821633036104055760ff5f805160206126fd833981519152541615610d875761044b825f8051602061267d83398151915254905f8051602061263d8339815191525416611ea7565b60649060206040519162461bcd60e51b8352820152600e60248201526d135d5cdd081899481c185d5cd95960921b6044820152fd5b34610198575f366003190112610198575f805f917f72d144bf2a7eedf61fc6d630de1bca192fde78e6cc73628209c6750037a765888054935b848110610e1457604080518581526001600160a01b0385166020820152f35b5f8290527fdce921373527c07f81d3a946e9918069f28d9563e609e05076b1b3aa9b0775068101546001600160a01b031660ff6001610e5283611749565b015460a01c1615610e8657610e66816122be565b858111610e7a575b50506001905b01610df5565b94509250600186610e6e565b50600190610e74565b34610198575f366003190112610198576020604051620151808152f35b503461019857606036600319011261019857610ec66116ac565b6024356001600160a01b03818116928383036101985767ffffffffffffffff9260443584811161019857610efd90369088016116c2565b949092845f8051602061261d83398151915254163303611179575f805160206126dd8339815191529081549086821661113f576001600160a01b0319918216908716179091555f8051602061263d833981519152805482166001600160a01b038516179055939190610f6e82611711565b946001958660ff19825416179055610f85836117b9565b60405193610f9285611867565b610f9d3689886118f9565b8552602096878601938a8552604087019b828d52610fc16060890197428952611749565b975190815192831161079e5750610fd8885461192f565b601f81116110f9575b508990601f831160011461107b579360029693835f8051602061269d8339815191529e9f9461106b9c9b9a9894611056985f92611070575b50505f19600383901b1c191690821b1789555b93519388018054935160ff60a01b90151560a01b1691909416919092161760ff60a01b1916179055565b51910155604051938385948552840191611967565b0390a2005b015190505f80611019565b90601f19831691895f528b5f20925f5b8181106110e45750945f8051602061269d8339815191529e9f9461106b9c9b9a9894611056989483948360029d9a106110cc575b505050811b01895561102c565b01515f1960f88460031b161c191690555f80806110bf565b82840151855593860193928d01928d0161108b565b885f528a5f20601f840160051c8101918c8510611135575b601f0160051c019084905b82811061112a575050610fe1565b5f815501849061111c565b9091508190611111565b60405162461bcd60e51b81526020818c01526013602482015272105b1c9958591e481a5b9a5d1a585b1a5e9959606a1b6044820152606490fd5b6040516313feb0df60e11b81528890fd5b5034610198576020366003190112610198576111b96020916111aa611b7f565b6111b2611d11565b3533611d48565b60015f805160206126bd83398151915255604051908152f35b5034610198576040366003190112610198576111ec6116ac565b67ffffffffffffffff6024358181116101985761120c90369085016116c2565b5f8051602061261d8339815191525490939192906001600160a01b03163303611473576001600160a01b038216156114625760ff61124983611711565b54166114425761125882611711565b6001908160ff1982541617905561126e836117b9565b6040519061127b82611867565b6112863687876118f9565b82526001600160a01b038416602083019081526040830182815242606085015290916112b186611749565b948451998a5191821161079e57506112c9865461192f565b601f81116113fa575b506020601f821160011461137e579261134e928260609693600298965f8051602061269d8339815191529d9e5f92611373575b50505f19600383901b1c191690821b1788555b9151918701805491516001600160a81b03199092166001600160a01b03939093169290921790151560a01b60ff60a01b16179055565b015191015561106b6040519283926020845260018060a01b0316956020840191611967565b015190505f80611305565b865f5260205f209a5f5b601f19841681106113e457509280835f8051602061269d8339815191529c9d600299979461134e9760609a97601f198116106113cc575b505050811b018855611318565b01515f1960f88460031b161c191690555f80806113bf565b828201518d559b84019b60209283019201611388565b865f5260205f20601f830160051c81019160208410611438575b601f0160051c019083905b82811061142d5750506112d2565b5f815501839061141f565b9091508190611414565b60405163cc82edc760e01b81526001600160a01b03831681870152602490fd5b60405163d92e233d60e01b81528590fd5b6040516313feb0df60e11b81528590fd5b34610198575f3660031901126101985761149c611b7f565b60015f805160206126bd83398151915255005b5034610198576020366003190112610198576114c96116ac565b3033141580611509575b6114f9575f8051602061263d8339815191525461044b91906001600160a01b0316611be5565b50604051636ff5618f60e01b8152fd5b505f8051602061261d833981519152546001600160a01b03163314156114d3565b5034610198576020366003190112610198576115446116ac565b303314158061163e575b6114f95761155a611b7f565b61156381611bae565b5f805160206125fd83398151915280546001600160a01b0392919083166115fa57819055425f805160206125dd83398151915255620151804201928342116115e757507fe1009627653eb47f7d0f3b4435749f7984a803c21f84a076cc4dcb0412cf066f916020916040519485521692a260015f805160206126bd83398151915255005b601190634e487b7160e01b5f525260245ffd5b60405162461bcd60e51b8152602081860152601960248201527f5570677261646520616c7265616479207363686564756c6564000000000000006044820152606490fd5b505f8051602061261d833981519152546001600160a01b031633141561154e565b50346101985760203660031901126101985761019060209135611b40565b34610198575f366003190112610198575f8051602061263d833981519152546001600160a01b03168152602090f35b600435906001600160a01b038216820361019857565b9181601f840112156101985782359167ffffffffffffffff8311610198576020838186019501011161019857565b919082018092116116fd57565b634e487b7160e01b5f52601160045260245ffd5b6001600160a01b03165f9081527f72d144bf2a7eedf61fc6d630de1bca192fde78e6cc73628209c6750037a7658a6020526040902090565b6001600160a01b03165f9081527f72d144bf2a7eedf61fc6d630de1bca192fde78e6cc73628209c6750037a765896020526040902090565b6001600160a01b03165f9081527f72d144bf2a7eedf61fc6d630de1bca192fde78e6cc73628209c6750037a765876020526040902090565b7f72d144bf2a7eedf61fc6d630de1bca192fde78e6cc73628209c6750037a7658880549068010000000000000000821015611853576001820180825582101561183f575f527fdce921373527c07f81d3a946e9918069f28d9563e609e05076b1b3aa9b0775060180546001600160a01b0319166001600160a01b03909216919091179055565b634e487b7160e01b5f52603260045260245ffd5b634e487b7160e01b5f52604160045260245ffd5b6080810190811067ffffffffffffffff82111761185357604052565b6060810190811067ffffffffffffffff82111761185357604052565b6040810190811067ffffffffffffffff82111761185357604052565b90601f8019910116810190811067ffffffffffffffff82111761185357604052565b67ffffffffffffffff811161185357601f01601f191660200190565b929192611905826118dd565b9161191360405193846118bb565b829481845281830111610198578281602093845f960137010152565b90600182811c9216801561195d575b602083101461194957565b634e487b7160e01b5f52602260045260245ffd5b91607f169161193e565b908060209392818452848401375f828201840152601f01601f1916010190565b1561198e57565b60405162461bcd60e51b8152602060048201526014602482015273139bc81d5c19dc985919481cd8da19591d5b195960621b6044820152606490fd5b905f8215611ad557826119dc33611781565b5410611a9957303b1561019857604051636da8c6d960e11b8152336004820152602481018490525f8160448183305af19081611a7c575b50611a78575060405160208101903360601b825283603482015242605482015260548152611a4081611867565b519020916040519081528260208201527fac7630200ec7f15fb2d46077b05f9a6c57c69ff10b243b36d98aaf4665bc962c60403392a2565b9150565b90915067ffffffffffffffff8111611853576040525f905f611a13565b60405162461bcd60e51b8152602060048201526014602482015273496e73756666696369656e742062616c616e636560601b6044820152606490fd5b60405162461bcd60e51b81526020600482015260126024820152710536861726573206d757374206265203e20360741b6044820152606490fd5b818102929181159184041417156116fd57565b8115611b2c570490565b634e487b7160e01b5f52601260045260245ffd5b5f8051602061265d833981519152548015611b7957611b71611b76925f8051602061267d8339815191525490611b0f565b611b22565b90565b50505f90565b5f805160206126bd8339815191526002815414611b9c5760029055565b604051633ee5aeb560e01b8152600490fd5b60ff611bb982611711565b541615611bc35750565b60405163092d0f9160e01b81526001600160a01b039091166004820152602490fd5b5f8051602061267d83398151915254916001600160a01b03828116929091908484151580611d08575b611cf8575b50505f8051602061263d83398151915280546001600160a01b0319166001600160a01b038316179055427f72d144bf2a7eedf61fc6d630de1bca192fde78e6cc73628209c6750037a7658d557f72d144bf2a7eedf61fc6d630de1bca192fde78e6cc73628209c6750037a7658e805490915f1982146116fd577fbea16e9be2c235d20283f7fd354d9d3c924686e3d3d8939d0f0bd5696b5c9877936040936001611cd19401905581169586151580611cef575b611cdf575b506122be565b8151908152426020820152a3565b611ce99082612049565b5f611ccb565b50801515611cc6565b611d0191611ea7565b5f84611c13565b50801515611c0e565b60ff5f805160206126fd8339815191525416611d2957565b6040516336a7e2cd60e21b8152600490fd5b919082039182116116fd57565b91907ff279e6a1f5e320cca91135676d9cb6e44ca8a08c0b88342bcdb1144f6511b568604060018060a01b03805f8051602061263d8339815191525416958615159687611e5b575b611d9986611b40565b8098611e4b575b50505f8051602061265d833981519152611dbb868254611d3b565b90555f8051602061267d833981519152611dd6888254611d3b565b9055611de181611781565b611dec868254611d3b565b90555f805160206126dd83398151915254835163a9059cbb60e01b60208201526001600160a01b038316602482015260448082018a90528152611e3b918416611e366064836118bb565b612508565b82519485528660208601521692a2565b611e5491611ea7565b5f87611da0565b611e6481612428565b5f8051602061267d83398151915255611d90565b3d15611ea2573d90611e89826118dd565b91611e9760405193846118bb565b82523d5f602084013e565b606090565b60408051916020935f808686016370a0823160e01b81526024963088820152878152611ed281611883565b519082865af1611ee0611e78565b901561200657858180518101031261019857611f189186611f0392015190611b0f565b5f8051602061267d8339815191525490611b22565b5f80845187810190632e1a7d4d60e01b82528488820152878152611f3b81611883565b519082865af1611f49611e78565b5015611f57575b5050505050565b5f80845187810190630852cd8d60e31b82528488820152878152611f7a81611883565b519082865af1611f88611e78565b50611f50575f9182918285518881019263db006a7560e01b845288820152878152611fb281611883565b51925af1611fbe611e78565b5015611fcb578080611f50565b5162461bcd60e51b81526004810192909252601590820152741495d0481dda5d1a191c985dd85b0819985a5b1959605a1b6044820152606490fd5b835162461bcd60e51b8152600481018790526019818701527f4661696c656420746f20676574205257412062616c616e6365000000000000006044820152606490fd5b5f805160206126dd8339815191525460408051636eb1769f60e11b81523060048201526001600160a01b038085166024808401829052602097909694959093919216908781604481855afa9081156122b45787929185915f9161227f575b505f6120b96120f295969382936116f0565b895163095ea7b360e01b818e018181526001600160a01b038c16998301998a5260208a0193909352979096612100918891604090910190565b03601f1981018852876118bb565b85519082865af161210f611e78565b8161224f575b5080612245575b15612210575b505050505f8084518781019063b6b55f2560e01b8252848882015287815261214981611883565b519082865af1612157611e78565b5015612164575050505050565b5f8084518781019063140e25ad60e31b8252848882015287815261218781611883565b519082865af1612195611e78565b50611f50575f91829182855188810192630f574ba760e01b8452888201528781526121bf81611883565b51925af16121cb611e78565b50156121d8578080611f50565b5162461bcd60e51b81526004810192909252601290820152711495d04819195c1bdcda5d0819985a5b195960721b6044820152606490fd5b61223c93611e36918851918b830152898201525f60448201526044815261223681611867565b82612508565b5f808080612122565b50813b151561211c565b8051801592508b908315612267575b5050505f612115565b61227793508201810191016124f0565b5f8a8161225e565b935050508782813d83116122ad575b61229881836118bb565b8101031261019857905186919084905f6120a7565b503d61228e565b86513d5f823e3d90fd5b5f6001600160a01b03821615611b7957604051915f8060209485810190639a79d32b60e01b8252600481526122f28161189f565b5190845afa91612300611e78565b92806123da575b1561231f575050818180518101031261019857015190565b9091505f8060405185810190636999ac9360e01b8252600481526123428161189f565b5190855afa91612350611e78565b92806123cf575b1561236f575050818180518101031261019857015190565b5f91939250819060405184810190630779f89760e31b8252600481526123948161189f565b51915afa6123a0611e78565b90806123c4575b6123b057505090565b908092508180518101031261019857015190565b5081815110156123a7565b508383511015612357565b508383511015612307565b5f8051602061265d8339815191525480158015612412575b61240e57611f0390611b7692611b0f565b5090565b505f8051602061267d83398151915254156123fd565b604051905f80602093848101906370a0823160e01b82523060248201526024815261245281611883565b5190845afa61245f611e78565b901580156124e6575b6124df578281805181010312610198575f83819201519260405185810190630a28a47760e01b8252856024820152602481526124a381611883565b51915afa906124b0611e78565b91806124d4575b156124ce5750818180518101031261019857015190565b91505090565b5082825110156124b7565b5050505f90565b5082815110612468565b90816020910312610198575180151581036101985790565b5f806125309260018060a01b03169360208151910182865af1612529611e78565b9083612579565b805190811515918261255e575b50506125465750565b60249060405190635274afe760e01b82526004820152fd5b61257192506020809183010191016124f0565b155f8061253d565b906125a0575080511561258e57805190602001fd5b604051630a12f52160e11b8152600490fd5b815115806125d3575b6125b1575090565b604051639996b31560e01b81526001600160a01b039091166004820152602490fd5b50803b156125a956feadb275a07892ad3523e29b4465a4b06f78200b7d9a9131f2dc9bd0cddc8b4097adb275a07892ad3523e29b4465a4b06f78200b7d9a9131f2dc9bd0cddc8b40969a6decb43b0ebbd1684fbbece4e7e6c020ceeca7d0af2d25051b1fcc8ad626e172d144bf2a7eedf61fc6d630de1bca192fde78e6cc73628209c6750037a7658672d144bf2a7eedf61fc6d630de1bca192fde78e6cc73628209c6750037a7658372d144bf2a7eedf61fc6d630de1bca192fde78e6cc73628209c6750037a765843d3c2ef37677a11bcb4b31e44713ae2388aa9da029c80ea4391ba56563c6745b9b779b17422d0df92223018b32b4d1fa46e071723d6817e2486d003becc55f0072d144bf2a7eedf61fc6d630de1bca192fde78e6cc73628209c6750037a7658572d144bf2a7eedf61fc6d630de1bca192fde78e6cc73628209c6750037a7658ca26469706673582212202419f946a9a66d606cccb42f48a899bc66b37b28496fd11b908dc4bb7279e2db64736f6c63430008160033","linkReferences":{}},"methodIdentifiers":{"MAX_SLIPPAGE_BPS()":"e229cd76","UPGRADE_DELAY()":"47fe8b1d","addRWAToWhitelist(address,string)":"2b464dc2","cancelScheduledUpgrade()":"97379d64","deposit(uint256)":"b6b55f25","emergencyPause(string)":"cf5b4fd5","emergencyWithdrawAll(address)":"54ab6269","executeScheduledUpgrade(uint256)":"a41cb07f","getBestAPY()":"4d2bc657","getCurrentAPY()":"962ca496","getCurrentRWA()":"063e94fb","getPendingUpgrade()":"93e39076","getRWAInfo(address)":"ec6a1653","getTotalAssets()":"6e07302b","getTotalShares()":"d5002f2e","getUserShares(address)":"ba0cb22b","getWhitelistedRWAs()":"94cb4bc0","initialize(address,address,string)":"4571e3a6","isPaused()":"b187bd26","isRWAWhitelisted(address)":"d74dc395","previewDeposit(uint256)":"ef8b30f7","previewWithdraw(uint256)":"0a28a477","processQueuedWithdrawals()":"2914eb36","removeRWAFromWhitelist(address)":"de34cea7","requestWithdrawal(uint256)":"9ee679e8","scheduleUpgrade(address)":"0c80447a","setMinDeposit(uint256)":"8fcc9cfb","setPause(bool)":"bedb86fb","upgradeToRWA(address)":"0cfd6431","withdraw(uint256)":"2e1a7d4d","withdrawFor(address,uint256)":"db518db2"},"id":50}