{"abi":[{"type":"constructor","inputs":[{"name":"_factory","type":"address","internalType":"address"}],"stateMutability":"nonpayable"},{"type":"function","name":"deactivateGarden","inputs":[{"name":"garden","type":"address","internalType":"address"}],"outputs":[],"stateMutability":"nonpayable"},{"type":"function","name":"factory","inputs":[],"outputs":[{"name":"","type":"address","internalType":"address"}],"stateMutability":"view"},{"type":"function","name":"gardenInfo","inputs":[{"name":"","type":"address","internalType":"address"}],"outputs":[{"name":"gardenAddress","type":"address","internalType":"address"},{"name":"strategy","type":"uint8","internalType":"enum GardenRegistry.StrategyType"},{"name":"name","type":"string","internalType":"string"},{"name":"deployedAt","type":"uint256","internalType":"uint256"},{"name":"isActive","type":"bool","internalType":"bool"}],"stateMutability":"view"},{"type":"function","name":"gardens","inputs":[{"name":"","type":"uint256","internalType":"uint256"}],"outputs":[{"name":"","type":"address","internalType":"address"}],"stateMutability":"view"},{"type":"function","name":"gardensByStrategy","inputs":[{"name":"","type":"uint8","internalType":"enum GardenRegistry.StrategyType"},{"name":"","type":"uint256","internalType":"uint256"}],"outputs":[{"name":"","type":"address","internalType":"address"}],"stateMutability":"view"},{"type":"function","name":"getAllGardenStats","inputs":[],"outputs":[{"name":"","type":"tuple[]","internalType":"struct GardenRegistry.GardenStats[]","components":[{"name":"gardenAddress","type":"address","internalType":"address"},{"name":"strategy","type":"uint8","internalType":"enum GardenRegistry.StrategyType"},{"name":"name","type":"string","internalType":"string"},{"name":"tvl","type":"uint256","internalType":"uint256"},{"name":"apy","type":"uint256","internalType":"uint256"},{"name":"userCount","type":"uint256","internalType":"uint256"},{"name":"isActive","type":"bool","internalType":"bool"}]}],"stateMutability":"view"},{"type":"function","name":"getAllGardens","inputs":[],"outputs":[{"name":"","type":"address[]","internalType":"address[]"}],"stateMutability":"view"},{"type":"function","name":"getGardenCount","inputs":[],"outputs":[{"name":"","type":"uint256","internalType":"uint256"}],"stateMutability":"view"},{"type":"function","name":"getGardenStats","inputs":[{"name":"garden","type":"address","internalType":"address"}],"outputs":[{"name":"stats","type":"tuple","internalType":"struct GardenRegistry.GardenStats","components":[{"name":"gardenAddress","type":"address","internalType":"address"},{"name":"strategy","type":"uint8","internalType":"enum GardenRegistry.StrategyType"},{"name":"name","type":"string","internalType":"string"},{"name":"tvl","type":"uint256","internalType":"uint256"},{"name":"apy","type":"uint256","internalType":"uint256"},{"name":"userCount","type":"uint256","internalType":"uint256"},{"name":"isActive","type":"bool","internalType":"bool"}]}],"stateMutability":"view"},{"type":"function","name":"getGardensByStrategy","inputs":[{"name":"strategy","type":"uint8","internalType":"enum GardenRegistry.StrategyType"}],"outputs":[{"name":"","type":"address[]","internalType":"address[]"}],"stateMutability":"view"},{"type":"function","name":"isGardenRegistered","inputs":[{"name":"garden","type":"address","internalType":"address"}],"outputs":[{"name":"","type":"bool","internalType":"bool"}],"stateMutability":"view"},{"type":"function","name":"owner","inputs":[],"outputs":[{"name":"","type":"address","internalType":"address"}],"stateMutability":"view"},{"type":"function","name":"registerGarden","inputs":[{"name":"garden","type":"address","internalType":"address"},{"name":"strategy","type":"uint8","internalType":"enum GardenRegistry.StrategyType"},{"name":"name","type":"string","internalType":"string"}],"outputs":[],"stateMutability":"nonpayable"},{"type":"function","name":"transferOwnership","inputs":[{"name":"newOwner","type":"address","internalType":"address"}],"outputs":[],"stateMutability":"nonpayable"},{"type":"function","name":"updateFactory","inputs":[{"name":"newFactory","type":"address","internalType":"address"}],"outputs":[],"stateMutability":"nonpayable"},{"type":"event","name":"FactoryUpdated","inputs":[{"name":"oldFactory","type":"address","indexed":true,"internalType":"address"},{"name":"newFactory","type":"address","indexed":true,"internalType":"address"}],"anonymous":false},{"type":"event","name":"GardenDeactivated","inputs":[{"name":"garden","type":"address","indexed":true,"internalType":"address"}],"anonymous":false},{"type":"event","name":"GardenRegistered","inputs":[{"name":"garden","type":"address","indexed":true,"internalType":"address"},{"name":"strategy","type":"uint8","indexed":true,"internalType":"enum GardenRegistry.StrategyType"},{"name":"name","type":"string","indexed":false,"internalType":"string"}],"anonymous":false},{"type":"error","name":"GardenAlreadyRegistered","inputs":[{"name":"garden","type":"address","internalType":"address"}]},{"type":"error","name":"GardenNotRegistered","inputs":[{"name":"garden","type":"address","internalType":"address"}]},{"type":"error","name":"Unauthorized","inputs":[]},{"type":"error","name":"ZeroAddress","inputs":[]}],"bytecode":{"object":"0x60803461009457601f61110c38819003918201601f19168301916001600160401b038311848410176100985780849260209460405283398101031261009457516001600160a01b038116908190036100945780156100825760018060a01b0319908160035416176003553390600454161760045560405161105f90816100ad8239f35b60405163d92e233d60e01b8152600490fd5b5f80fd5b634e487b7160e01b5f52604160045260245ffdfe6080806040526004361015610012575f80fd5b5f3560e01c90816332c59c2314610c8757508063580a2e6714610bf957806359ea432214610b7b5780638da5cb5b14610b535780638fb2ce1014610b185780639e18eb3914610af0578063afe677ba14610a57578063c45a015514610a2f578063cb72c63f146106bb578063cf3a27cd14610441578063d2afda67146103ea578063d9f165dc14610372578063eaae68b3146102ee578063eb461ab61461012f5763f2fde38b146100c1575f80fd5b3461012b57602036600319011261012b576100da610ca0565b600454906001600160a01b0390818316330361011a5716908115610108576001600160a01b03191617600455005b60405163d92e233d60e01b8152600490fd5b6040516282b42960e81b8152600490fd5b5f80fd5b3461012b5760208060031936011261012b57610149610ca0565b90610152610faf565b5060018060a01b039182811692835f526001835260405f209160405161017781610cee565b835492808416825261019260ff8784019560a01c1685610f8b565b60ff60036101a260018801610d64565b966040850197885260028101546060860152015416916080810192151583525116156102d5575f8060405187810190636e07302b60e01b8252600481526101e881610d26565b5190855afa6101f5610fe6565b90156102cb57858180518101031261012b575f8681920151935b604051634b16524b60e11b898201908152600482529061022e81610d26565b51915afa61023a610fe6565b90156102c357858180518101031261012b57850151925b519360038510156102af5761027d905191511515946040519761027389610d0a565b8852868801610f8b565b6040860152606085015260808401525f60a084015260c08301526102ab604051928284938452830190610f0d565b0390f35b634e487b7160e01b5f52602160045260245ffd5b505f92610251565b505f80809361020f565b604051631187b27d60e21b815260048101879052602490fd5b3461012b5760208060031936011261012b57600435600381101561012b5761031590610f74565b906040519081602084549182815201935f5260205f20915f905b828210610352576102ab8561034681890382610d42565b60405191829182610e51565b83546001600160a01b03168652948501946001938401939091019061032f565b3461012b57602036600319011261012b5761038b610ca0565b6004546001600160a01b0391908216330361011a57811690811561010857600354826bffffffffffffffffffffffff60a01b821617600355167f333c7678baf16017cf31e1d2f90143a62aab01a67a0807f6836a4304ceabb5555f80a3005b3461012b57604036600319011261012b57600435600381101561012b5761041360243591610f74565b805482101561012b5760209161042891610edc565b905460405160039290921b1c6001600160a01b03168152f35b3461012b575f36600319011261012b575f5461045c81610f97565b6104696040519182610d42565b81815261047582610f97565b60209290601f1901835f5b8281106106a5575050505f5b8181106104f35750506040519082820192808352815180945260408301938160408260051b8601019301915f955b8287106104c75785850386f35b9091929382806104e3600193603f198a82030186528851610f0d565b96019201960195929190926104ba565b6104fc81610e95565b919060018060a01b03809154600394851b1c165f52600180875260405f2093876040519361052985610cee565b865494818616815261055160ff9561054a8760a096850199871c1689610f8b565b8901610d64565b94604082019586528460028a01549960609a8b85015201541697608080920198151589525f808d856105828c610e95565b9054908a1b1c169060405190810190636e07302b60e01b8252600481526105a881610d26565b51915afa908c6105b6610fe6565b921561069a578280518101031261012b575f808e80940151935b866105da8d610e95565b9054908b1b1c169060405190810190634b16524b60e11b82526004815261060081610d26565b51915afa61060c610fe6565b9015610692578d8180518101031261012b578d0151935b61062c8a610e95565b905490881b1c169751958610156102af576001996106635f978f995192511515996040519b61065a8d610d0a565b8c528b01610f8b565b604089015287015285015283015260c08201526106808286611015565b5261068b8185611015565b500161048c565b505f93610623565b91505f8080936105d0565b6106ad610faf565b828287010152018490610480565b3461012b57606036600319011261012b576106d4610ca0565b60243590600382101561012b576044359067ffffffffffffffff821161012b573660238301121561012b57816004013561070d81610ef1565b9261071b6040519485610d42565b818452366024838301011161012b57815f9260246020930183870137840101526003546001600160a01b0316330361011a576001600160a01b03811615610108576001600160a01b038181165f9081526001602052604090205416610a0d5760405161078681610cee565b6001600160a01b0382168152602081016107a08582610f8b565b60408201848152426060840152600160808401525f54600160401b811015610936578060016107d192015f55610e95565b81546001600160a01b03600392831b81811b199092168882169283901b179093555f90815260016020526040902085518154955191959316918110156102af576001600160a81b03199092161760a09190911b60ff60a01b161782555180519067ffffffffffffffff82116109365761084d6001840154610cb6565b601f81116109c5575b50602090601f8311600114610955579180608094926003945f9261094a575b50505f1982851b1c1916600191821b17908201555b6060840151600282015501910151151560ff801983541691161790556108af83610f74565b90815490600160401b821015610936576108f3827f7d9e6113aa47dfa51631302abc25d5214f4676e235a46c4cc9c2af59a47ab9d494600161093195018155610edc565b81549060031b9060018060a01b038416821b9160018060a01b03901b19161790556040519182916020835260018060a01b0316946020830190610e13565b0390a3005b634e487b7160e01b5f52604160045260245ffd5b015190508980610875565b90600184015f5260205f20915f5b601f19851681106109ad5750926080949260019260039583601f19811610610996575b505050811b01600182015561088a565b01515f1983871b60f8161c19169055898080610986565b91926020600181928685015181550194019201610963565b600184015f5260205f20601f840160051c81019160208510610a03575b601f0160051c01905b8181106109f85750610856565b5f81556001016109eb565b90915081906109e2565b6040516375502b1f60e11b81526001600160a01b039091166004820152602490fd5b3461012b575f36600319011261012b576003546040516001600160a01b039091168152602090f35b3461012b57602036600319011261012b57610a70610ca0565b6004546001600160a01b0391908216330361011a57811690815f52600160205260405f20541615610ad857805f526001602052600360405f200160ff1981541690557fdfab8df5fb29277311aa8f4aa41c4e9fb4abefd758c1feb0982ec9944d1262f45f80a2005b60249060405190631187b27d60e21b82526004820152fd5b3461012b57602036600319011261012b576004355f5481101561012b57610428602091610e95565b3461012b57602036600319011261012b5760206001600160a01b0380610b3c610ca0565b165f526001825260405f2054161515604051908152f35b3461012b575f36600319011261012b576004546040516001600160a01b039091168152602090f35b3461012b575f36600319011261012b576040515f8054808352818052602080840193927f290decd9548b62a8d60345a988386fc84ba6bc95484008f6362f93160ef3e56392915b828210610bd9576102ab8561034681890382610d42565b83546001600160a01b031686529485019460019384019390910190610bc2565b3461012b57602036600319011261012b576001600160a01b0380610c1b610ca0565b165f52600160205260405f2090815491610c3760018201610d64565b610c7660ff600360028501549401541691610c656040519687968116875260ff602088019160a01c16610e06565b60a0604086015260a0850190610e13565b916060840152151560808301520390f35b3461012b575f36600319011261012b576020905f548152f35b600435906001600160a01b038216820361012b57565b90600182811c92168015610ce4575b6020831014610cd057565b634e487b7160e01b5f52602260045260245ffd5b91607f1691610cc5565b60a0810190811067ffffffffffffffff82111761093657604052565b60e0810190811067ffffffffffffffff82111761093657604052565b6040810190811067ffffffffffffffff82111761093657604052565b90601f8019910116810190811067ffffffffffffffff82111761093657604052565b9060405191825f8254610d7681610cb6565b908184526020946001916001811690815f14610de45750600114610da6575b505050610da492500383610d42565b565b5f90815285812095935091905b818310610dcc575050610da493508201015f8080610d95565b85548884018501529485019487945091830191610db3565b92505050610da494925060ff191682840152151560051b8201015f8080610d95565b9060038210156102af5752565b91908251928382525f5b848110610e3d575050825f602080949584010152601f8019910116010190565b602081830181015184830182015201610e1d565b60209060206040818301928281528551809452019301915f5b828110610e78575050505090565b83516001600160a01b031685529381019392810192600101610e6a565b5f54811015610ec8575f80527f290decd9548b62a8d60345a988386fc84ba6bc95484008f6362f93160ef3e56301905f90565b634e487b7160e01b5f52603260045260245ffd5b8054821015610ec8575f5260205f2001905f90565b67ffffffffffffffff811161093657601f01601f191660200190565b80516001600160a01b03168252602080820151919291610f2f91830190610e06565b60c080610f4b604085015160e0604086015260e0850190610e13565b93606081015160608501526080810151608085015260a081015160a08501520151151591015290565b60038110156102af575f52600260205260405f2090565b60038210156102af5752565b67ffffffffffffffff81116109365760051b60200190565b60405190610fbc82610d0a565b5f60c083828152826020820152606060408201528260608201528260808201528260a08201520152565b3d15611010573d90610ff782610ef1565b916110056040519384610d42565b82523d5f602084013e565b606090565b8051821015610ec85760209160051b01019056fea2646970667358221220eac4e1a2dc12cf94167ae7043fd1c41befd78f25612f6cf4db7195d8f2ba114364736f6c63430008160033","linkReferences":{}},"methodIdentifiers":{"deactivateGarden(address)":"afe677ba","factory()":"c45a0155","gardenInfo(address)":"580a2e67","gardens(uint256)":"9e18eb39","gardensByStrategy(uint8,uint256)":"d2afda67","getAllGardenStats()":"cf3a27cd","getAllGardens()":"59ea4322","getGardenCount()":"32c59c23","getGardenStats(address)":"eb461ab6","getGardensByStrategy(uint8)":"eaae68b3","isGardenRegistered(address)":"8fb2ce10","owner()":"8da5cb5b","registerGarden(address,uint8,string)":"cb72c63f","transferOwnership(address)":"f2fde38b","updateFactory(address)":"d9f165dc"},"id":31}