{"abi":[{"type":"function","name":"cancel","inputs":[{"name":"proposalId","type":"uint256","internalType":"uint256"}],"outputs":[],"stateMutability":"nonpayable"},{"type":"function","name":"castVote","inputs":[{"name":"proposalId","type":"uint256","internalType":"uint256"},{"name":"support","type":"uint8","internalType":"uint8"}],"outputs":[{"name":"","type":"uint256","internalType":"uint256"}],"stateMutability":"nonpayable"},{"type":"function","name":"castVoteWithReason","inputs":[{"name":"proposalId","type":"uint256","internalType":"uint256"},{"name":"support","type":"uint8","internalType":"uint8"},{"name":"reason","type":"string","internalType":"string"}],"outputs":[{"name":"","type":"uint256","internalType":"uint256"}],"stateMutability":"nonpayable"},{"type":"function","name":"execute","inputs":[{"name":"proposalId","type":"uint256","internalType":"uint256"}],"outputs":[{"name":"","type":"uint256","internalType":"uint256"}],"stateMutability":"payable"},{"type":"function","name":"getProposal","inputs":[{"name":"proposalId","type":"uint256","internalType":"uint256"}],"outputs":[{"name":"","type":"tuple","internalType":"struct IGovernance.Proposal","components":[{"name":"id","type":"uint256","internalType":"uint256"},{"name":"proposer","type":"address","internalType":"address"},{"name":"targetRWA","type":"address","internalType":"address"},{"name":"description","type":"string","internalType":"string"},{"name":"forVotes","type":"uint256","internalType":"uint256"},{"name":"againstVotes","type":"uint256","internalType":"uint256"},{"name":"abstainVotes","type":"uint256","internalType":"uint256"},{"name":"startBlock","type":"uint256","internalType":"uint256"},{"name":"endBlock","type":"uint256","internalType":"uint256"},{"name":"eta","type":"uint256","internalType":"uint256"},{"name":"executed","type":"bool","internalType":"bool"},{"name":"canceled","type":"bool","internalType":"bool"}]}],"stateMutability":"view"},{"type":"function","name":"getProposalParams","inputs":[],"outputs":[{"name":"","type":"tuple","internalType":"struct IGovernance.ProposalParams","components":[{"name":"votingDelay","type":"uint256","internalType":"uint256"},{"name":"votingPeriod","type":"uint256","internalType":"uint256"},{"name":"proposalThreshold","type":"uint256","internalType":"uint256"},{"name":"quorumVotes","type":"uint256","internalType":"uint256"},{"name":"timelockDelay","type":"uint256","internalType":"uint256"}]}],"stateMutability":"view"},{"type":"function","name":"getVotes","inputs":[{"name":"account","type":"address","internalType":"address"},{"name":"blockNumber","type":"uint256","internalType":"uint256"}],"outputs":[{"name":"","type":"uint256","internalType":"uint256"}],"stateMutability":"view"},{"type":"function","name":"hasVoted","inputs":[{"name":"proposalId","type":"uint256","internalType":"uint256"},{"name":"account","type":"address","internalType":"address"}],"outputs":[{"name":"","type":"bool","internalType":"bool"}],"stateMutability":"view"},{"type":"function","name":"initializeGovernance","inputs":[{"name":"_votingDelay","type":"uint256","internalType":"uint256"},{"name":"_votingPeriod","type":"uint256","internalType":"uint256"},{"name":"_proposalThreshold","type":"uint256","internalType":"uint256"},{"name":"_quorumVotes","type":"uint256","internalType":"uint256"},{"name":"_timelockDelay","type":"uint256","internalType":"uint256"}],"outputs":[],"stateMutability":"nonpayable"},{"type":"function","name":"propose","inputs":[{"name":"targetRWA","type":"address","internalType":"address"},{"name":"description","type":"string","internalType":"string"}],"outputs":[{"name":"","type":"uint256","internalType":"uint256"}],"stateMutability":"nonpayable"},{"type":"function","name":"queue","inputs":[{"name":"proposalId","type":"uint256","internalType":"uint256"}],"outputs":[{"name":"","type":"uint256","internalType":"uint256"}],"stateMutability":"nonpayable"},{"type":"function","name":"setProposalThreshold","inputs":[{"name":"newThreshold","type":"uint256","internalType":"uint256"}],"outputs":[],"stateMutability":"nonpayable"},{"type":"function","name":"setQuorumVotes","inputs":[{"name":"newQuorum","type":"uint256","internalType":"uint256"}],"outputs":[],"stateMutability":"nonpayable"},{"type":"function","name":"setVotingDelay","inputs":[{"name":"newDelay","type":"uint256","internalType":"uint256"}],"outputs":[],"stateMutability":"nonpayable"},{"type":"function","name":"setVotingPeriod","inputs":[{"name":"newPeriod","type":"uint256","internalType":"uint256"}],"outputs":[],"stateMutability":"nonpayable"},{"type":"function","name":"state","inputs":[{"name":"proposalId","type":"uint256","internalType":"uint256"}],"outputs":[{"name":"","type":"uint8","internalType":"enum IGovernance.ProposalState"}],"stateMutability":"view"},{"type":"event","name":"Initialized","inputs":[{"name":"version","type":"uint64","indexed":false,"internalType":"uint64"}],"anonymous":false},{"type":"event","name":"ProposalCanceled","inputs":[{"name":"proposalId","type":"uint256","indexed":true,"internalType":"uint256"}],"anonymous":false},{"type":"event","name":"ProposalCreated","inputs":[{"name":"proposalId","type":"uint256","indexed":true,"internalType":"uint256"},{"name":"proposer","type":"address","indexed":true,"internalType":"address"},{"name":"targetRWA","type":"address","indexed":false,"internalType":"address"},{"name":"startBlock","type":"uint256","indexed":false,"internalType":"uint256"},{"name":"endBlock","type":"uint256","indexed":false,"internalType":"uint256"},{"name":"description","type":"string","indexed":false,"internalType":"string"}],"anonymous":false},{"type":"event","name":"ProposalExecuted","inputs":[{"name":"proposalId","type":"uint256","indexed":true,"internalType":"uint256"}],"anonymous":false},{"type":"event","name":"ProposalQueued","inputs":[{"name":"proposalId","type":"uint256","indexed":true,"internalType":"uint256"},{"name":"eta","type":"uint256","indexed":false,"internalType":"uint256"}],"anonymous":false},{"type":"event","name":"ProposalThresholdSet","inputs":[{"name":"oldThreshold","type":"uint256","indexed":false,"internalType":"uint256"},{"name":"newThreshold","type":"uint256","indexed":false,"internalType":"uint256"}],"anonymous":false},{"type":"event","name":"QuorumVotesSet","inputs":[{"name":"oldQuorum","type":"uint256","indexed":false,"internalType":"uint256"},{"name":"newQuorum","type":"uint256","indexed":false,"internalType":"uint256"}],"anonymous":false},{"type":"event","name":"VoteCast","inputs":[{"name":"voter","type":"address","indexed":true,"internalType":"address"},{"name":"proposalId","type":"uint256","indexed":true,"internalType":"uint256"},{"name":"support","type":"uint8","indexed":false,"internalType":"uint8"},{"name":"votes","type":"uint256","indexed":false,"internalType":"uint256"},{"name":"reason","type":"string","indexed":false,"internalType":"string"}],"anonymous":false},{"type":"event","name":"VotingDelaySet","inputs":[{"name":"oldDelay","type":"uint256","indexed":false,"internalType":"uint256"},{"name":"newDelay","type":"uint256","indexed":false,"internalType":"uint256"}],"anonymous":false},{"type":"event","name":"VotingPeriodSet","inputs":[{"name":"oldPeriod","type":"uint256","indexed":false,"internalType":"uint256"},{"name":"newPeriod","type":"uint256","indexed":false,"internalType":"uint256"}],"anonymous":false},{"type":"error","name":"AlreadyVoted","inputs":[]},{"type":"error","name":"BelowProposalThreshold","inputs":[]},{"type":"error","name":"Diamond_UnauthorizedCaller","inputs":[]},{"type":"error","name":"InvalidInitialization","inputs":[]},{"type":"error","name":"InvalidVoteType","inputs":[]},{"type":"error","name":"NotGovernance","inputs":[]},{"type":"error","name":"NotInitializing","inputs":[]},{"type":"error","name":"ProposalNotActive","inputs":[]},{"type":"error","name":"ProposalNotQueued","inputs":[]},{"type":"error","name":"ProposalNotSucceeded","inputs":[]},{"type":"error","name":"QuorumNotReached","inputs":[]},{"type":"error","name":"ReentrancyGuardReentrantCall","inputs":[]},{"type":"error","name":"TimelockNotExpired","inputs":[]}],"bytecode":{"object":"0x6080806040523461001657611b2a908161001b8239f35b5f80fdfe6080806040526004361015610012575f80fd5b5f905f3560e01c90816302ec8f9e14611247575080631e06271f146111655780633e4f49e61461113657806340e58ee514610e965780634385963214610e295780635678138814610de057806370b0f66014610d685780637689ded514610cca5780637b3c71d314610c82578063c7f758a814610a28578063d6f0948c146105f9578063ddf0b00914610512578063ea0217cf1461049a578063eb9019d41461046b578063ece40cc1146103e15763fe0d94c1146100ce575f80fd5b602090816003193601126102b957600435805f525f80516020611a7583398151915280845260405f2061010083611683565b60088110156103cd5760050361039b57600981015480421061035f5762093a80810180911161034b57421161031357600a0160019160ff1991600183825416179055835f52855260405f206040519061015882611311565b8054825260018060a01b03938460018301541688840152846002830154169360408401948552886003840191604051935f938054610195816113e4565b80885293600182169182156102f55750506001146102bd575b5050505061016092826101c760ff94600a94038261132e565b606086015260048101546080860152600581015460a0860152600681015460c0860152600781015460e0860152600881015461010086015260098101546101208601520154818116151561014085015260081c1615159101525116303b156102b95760405190630cfd643160e01b825260048201525f8160248183305af180156102ae5761027d575b50807f712ae1383f79ac853f8d882153778e0260ef8f03b504e2866e0593e04d2b291f6040519380a28152f35b90915067ffffffffffffffff811161029a576040525f905f610250565b634e487b7160e01b5f52604160045260245ffd5b6040513d5f823e3d90fd5b5f80fd5b5f908152838120939450925b8284106102e25750505082010188826101c760ff6101ae565b80548685018601529284019281016102c9565b1685880152505050151560051b830101905088826101c760ff6101ae565b60405162461bcd60e51b815260048101869052601060248201526f141c9bdc1bdcd85b08195e1c1a5c995960821b6044820152606490fd5b634e487b7160e01b5f52601160045260245ffd5b60405162461bcd60e51b8152600481018790526014602482015273151a5b595b1bd8dac81b9bdd08195e1c1a5c995960621b6044820152606490fd5b60405162461bcd60e51b815260048101869052600a602482015269139bdd081c5d595d595960b21b6044820152606490fd5b634e487b7160e01b5f52602160045260245ffd5b346102b95760203660031901126102b9575f80516020611a5583398151915254600435906001600160a01b031633036104595760407fccb45da8d5717e6c4544694297c4ba5cf151d455c9bb0ed4fc7a38411bc05461915f80516020611a9583398151915290808254925582519182526020820152a1005b6040516313feb0df60e11b8152600490fd5b346102b95760403660031901126102b95760206104926104896112cf565b60243590611627565b604051908152f35b346102b95760203660031901126102b9575f80516020611a5583398151915254600435906001600160a01b031633036104595760407f7e3f7f0708a84de9203036abaa450dccc85ad5ff52f78c170f3edb55cf5e8828915f80516020611ad583398151915290808254925582519182526020820152a1005b346102b95760203660031901126102b95760043561052f81611683565b60088110156103cd576004036105bb5760209061056d7fbf257f2ef4b32dce45eec48f5e5ecd97019b118b52bf2aefbb02b3fb63c9859b5442611676565b90805f525f80516020611a75833981519152835281600960405f2001557f9a2e42fd6722813d69113e7d0079d3d940171428df7373df9c7f7617cfda289283604051848152a2604051908152f35b60405162461bcd60e51b8152602060048201526016602482015275141c9bdc1bdcd85b081b9bdd081cdd58d8d95959195960521b6044820152606490fd5b346102b95760403660031901126102b9576106126112cf565b67ffffffffffffffff906024358281116102b957610634903690600401611350565b335f9081527f72d144bf2a7eedf61fc6d630de1bca192fde78e6cc73628209c6750037a7658760205260409020909190545f80516020611a9583398151915254116109e3577fbf257f2ef4b32dce45eec48f5e5ecd97019b118b52bf2aefbb02b3fb63c98595805492905f19841461034b576001848101918290555f8281525f80516020611a7583398151915260205260409020918255810180546001600160a01b031990811633179091556002820180549091166001600160a01b038516179055815194851161029a5761070c60038201546113e4565b94601f861161099b575b602095508086601f8211600114610934575f91610929575b508160011b915f199060031b1c19161760038201555b600861077c6107615f80516020611a358339815191525443611676565b8060078501555f80516020611ad58339815191525490611676565b910155600183015f525f80516020611a75833981519152845260405f206040516107a581611311565b8154815260018201546001600160a01b0390811687830152600283015416604080830191909152516003830180549082905f906107e1846113e4565b808452936001811690811561090957506001146108cc575b506108069250038261132e565b606082015260048201546080820152600582015460a0820152600682015460c08201526007820154908160e082015261016060ff600a6008860154958661010086015260098101546101208601520154818116151561014085015260081c1615159101526040519360018060a01b03168452858401526040830152608060608301527f90ec05050aa23d54ba425e926fe646c318e85825bc400b13a46010abe86eb2f03392806108be600187019460808301906113a6565b0390a3600160405191018152f35b90505f92919252885f20905f915b8183106108f25750509088610806928201018a6107f9565b80548584018c0152849350918a01916001016108da565b60ff1916848d01525061080693151560051b83018b0191508b90506107f9565b90508301518761072e565b9150600383015f52865f205f925b601f1983168410610984576001935082601f1981161061096c575b5050811b016003820155610744565b8501515f1960f88460031b161c19169055878061095d565b858101518255928801926001909101908801610942565b600382015f5260205f20601f820160051c810196602083106109d9575b601f0160051c01955b8681106109ce5750610716565b5f81556001016109c1565b90965086906109b8565b60405162461bcd60e51b815260206004820152601860248201527f42656c6f772070726f706f73616c207468726573686f6c6400000000000000006044820152606490fd5b346102b95760203660031901126102b9575f610160604051610a4981611311565b8281528260208201528260408201526060808201528260808201528260a08201528260c08201528260e082015282610100820152826101208201528261014082015201526004355f525f80516020611a7583398151915260205260405f2060405190610ab482611311565b8054825260018101546001600160a01b0390811660208401526002820154166040808401919091525160038201545f90610aed816113e4565b8084529060018116908115610c605750600114610c22575b509181610b18600a9360ff95038261132e565b606085015260048101546080850152600581015460a0850152600681015460c0850152600781015460e0850152600881015461010085015260098101546101208501520154818116151561014084015260081c1615156101608201526040518091602082528051602083015260018060a01b03602082015116604083015260018060a01b0360408201511660608301526060810151610160610bc8610180928360808701526101a08601906113a6565b92608081015160a086015260a081015160c086015260c081015160e086015260e081015161010086015261010081015161012086015261012081015161014086015261014081015115158286015201511515908301520390f35b9050600383015f5260205f20905f915b818310610c46575050810160200181610b05565b600181602092949394548385880101520191019190610c32565b60ff191660208086019190915291151560051b84019091019150829050610b05565b346102b95760603660031901126102b957610c9b6112e5565b60443567ffffffffffffffff81116102b957602091610cc1610492923690600401611350565b90600435611454565b346102b95760a03660031901126102b9575f80516020611a55833981519152546001600160a01b03163303610459576004355f80516020611a35833981519152556024355f80516020611ad5833981519152556044355f80516020611a95833981519152556064355f80516020611ab5833981519152556084357fbf257f2ef4b32dce45eec48f5e5ecd97019b118b52bf2aefbb02b3fb63c9859b55005b346102b95760203660031901126102b9575f80516020611a5583398151915254600435906001600160a01b031633036104595760407fc565b045403dc03c2eea82b81a0465edad9e2e7fc4d97e11421c209da93d7a93915f80516020611a3583398151915290808254925582519182526020820152a1005b346102b95760403660031901126102b957610df96112e5565b604051602081019080821067ffffffffffffffff83111761029a57602092610492926040525f8252600435611454565b346102b95760403660031901126102b9576024356001600160a01b038116908190036102b9576004355f527fbf257f2ef4b32dce45eec48f5e5ecd97019b118b52bf2aefbb02b3fb63c9859660205260405f20905f52602052602060ff60405f2054166040519015158152f35b346102b9576020806003193601126102b95760043590815f525f80516020611a7583398151915280825260405f2091604051610ed181611311565b8354815260018060a01b03809160019082600188015416918582019283528360028901541660408301526003880190604051915f91815491610f12836113e4565b92838652858b6001831692835f14611113575050506001146110d5575b50505081610f3e91038261132e565b606082015260048701546080820152600587015460a0820152600687015460c0820152600787015460e082015261016060ff600a60088a0154996101009a8b86015260098101546101208601520154818116151561014085015260081c16151591015251163314908115611081575b501561104c57610fbc84611683565b60088110156103cd5760071461100857835f5252600a60405f20019061ff00198254161790557f789cf55be980739dad1d0699b93b58e806b51c9d96619bfa8fe0a28abaa7b30c5f80a2005b6064906040519062461bcd60e51b82526004820152601f60248201527f43616e6e6f742063616e63656c2065786563757465642070726f706f73616c006044820152fd5b6064906040519062461bcd60e51b82526004820152600e60248201526d139bdd08185d5d1a1bdc9a5e995960921b6044820152fd5b90506040516040810181811067ffffffffffffffff82111761029a576f23a7ab22a92720a721a2afa0a226a4a760811b9184916040526010815201525f80516020611a558339815191525416331485610fad565b8993505f92919252825f20915f925b8284106110fb5750505082010181610f3e8c610f2f565b80548685018601528998508a949093019281016110e4565b92509350939150610f3e945060ff191682840152151560051b820101918c610f2f565b346102b95760203660031901126102b957611152600435611683565b60405160088210156103cd576020918152f35b346102b9575f3660031901126102b9575f6080604051611184816112f5565b828152826020820152826040820152826060820152015260a05f80516020611a35833981519152545f80516020611ad5833981519152545f80516020611a95833981519152545f80516020611ab583398151915254907fbf257f2ef4b32dce45eec48f5e5ecd97019b118b52bf2aefbb02b3fb63c9859b5492608060405161120b816112f5565b86815260208101928352604081019384526060810194855201938452604051948552516020850152516040840152516060830152516080820152f35b346102b95760203660031901126102b9575f80516020611a558339815191525460043591906001600160a01b031633036112c0577fffff0a251408cb8f05a4fc2ab0bdffe28e1519cb8ee5bdb6531e5d6ca51aaf756040835f80516020611ab583398151915290808254925582519182526020820152a1005b6313feb0df60e11b8152600490fd5b600435906001600160a01b03821682036102b957565b6024359060ff821682036102b957565b60a0810190811067ffffffffffffffff82111761029a57604052565b610180810190811067ffffffffffffffff82111761029a57604052565b90601f8019910116810190811067ffffffffffffffff82111761029a57604052565b81601f820112156102b95780359067ffffffffffffffff821161029a5760405192611385601f8401601f19166020018561132e565b828452602083830101116102b957815f926020809301838601378301015290565b91908251928382525f5b8481106113d0575050825f602080949584010152601f8019910116010190565b6020818301810151848301820152016113b0565b90600182811c92168015611412575b60208310146113fe57565b634e487b7160e01b5f52602260045260245ffd5b91607f16916113f3565b6001600160a01b03165f9081527fbf257f2ef4b32dce45eec48f5e5ecd97019b118b52bf2aefbb02b3fb63c9859c6020526040902090565b909161145f82611683565b60088110156103cd576001036115ef5760ff8316600281116115b657825f525f80516020611a758339815191526020526040805f207fbf257f2ef4b32dce45eec48f5e5ecd97019b118b52bf2aefbb02b3fb63c98596602052815f20335f52602052815f2060ff81541661158257918160017fb8e138887d0aa13bab447e82de9d5c1777041ecd21ca36ba824ff1e6c07ddda49594816115056007606097015433611879565b9a8b94886115585760050161151b868254611676565b90555b61ff0083549160081b169061ffff1916171781550155805192835286602084015282015280611552339460608301906113a6565b0390a390565b8883036115745760040161156d868254611676565b905561151e565b60060161156d868254611676565b825162461bcd60e51b815260206004820152600d60248201526c105b1c9958591e481d9bdd1959609a1b6044820152606490fd5b60405162461bcd60e51b8152602060048201526011602482015270496e76616c696420766f7465207479706560781b6044820152606490fd5b60405162461bcd60e51b815260206004820152601060248201526f159bdd1a5b99c81a5cc818db1bdcd95960821b6044820152606490fd5b904381101561163c5761163991611879565b90565b506001600160a01b03165f9081527f72d144bf2a7eedf61fc6d630de1bca192fde78e6cc73628209c6750037a76587602052604090205490565b9190820180921161034b57565b5f5260205f80516020611a75833981519152815260405f2090604051906116a982611311565b8254825260018060a01b039060019180600186015416828501526002850154166040840152600384016040519283915f918154916116e6836113e4565b808652926001811690811561184a575060011461180c575b50505061170d9250038261132e565b6060820152600482015480608083015260058301548060a0840152600684015460c084015260078401548060e085015260088501549081610100860152610160600a6009880154978861012089015201549560ff8088161515978861014084015260081c16151591829101525f1461178a57505050505050600290565b43116117995750505050505f90565b43116117a85750505050600190565b8111908115916117f4575b50156117c0575050600390565b816117cc575050600490565b156117d75750600790565b62093a80810180911161034b5742106117ef57600690565b600590565b90505f80516020611ab583398151915254115f6117b3565b5f90815285812095935091905b81831061183257505061170d93508201015f80806116fe565b85548784018501529485019486945091830191611819565b9250505061170d94925060ff191682840152151560051b8201015f80806116fe565b9190820391821161034b57565b438210156119fa576001600160a01b0381165f9081527fbf257f2ef4b32dce45eec48f5e5ecd97019b118b52bf2aefbb02b3fb63c9859d602090815260409182902054919282156119f1576118cd8161141c565b5f199081850194851161034b57845f52835285855f205411156119e3576118f38261141c565b5f8052835285855f2054116119d9575f95919593905b8482116119295750505061191e60019461141c565b915f52525f20015490565b61193a85839594989397969761186c565b95611949600197881c8661186c565b906119538461141c565b825f528552865f20875198888a01908a821067ffffffffffffffff83111761029a579089528154808b5291015498860198895289810361199b57505050505050505090505190565b89919293949596979850105f146119b85750935b90959195611909565b9450818101908111156119af57634e487b7160e01b5f52601160045260245ffd5b5050505050505f90565b506001945061191e9061141c565b50505050505f90565b60405162461bcd60e51b8152602060048201526012602482015271139bdd081e595d0819195d195c9b5a5b995960721b6044820152606490fdfebf257f2ef4b32dce45eec48f5e5ecd97019b118b52bf2aefbb02b3fb63c985979a6decb43b0ebbd1684fbbece4e7e6c020ceeca7d0af2d25051b1fcc8ad626e1bf257f2ef4b32dce45eec48f5e5ecd97019b118b52bf2aefbb02b3fb63c98594bf257f2ef4b32dce45eec48f5e5ecd97019b118b52bf2aefbb02b3fb63c98599bf257f2ef4b32dce45eec48f5e5ecd97019b118b52bf2aefbb02b3fb63c9859abf257f2ef4b32dce45eec48f5e5ecd97019b118b52bf2aefbb02b3fb63c98598a26469706673582212209883e119d4f39d875a5612f5498dc95cee4663d32b9fa2f43148bc89f5f591ba64736f6c63430008160033","linkReferences":{}},"methodIdentifiers":{"cancel(uint256)":"40e58ee5","castVote(uint256,uint8)":"56781388","castVoteWithReason(uint256,uint8,string)":"7b3c71d3","execute(uint256)":"fe0d94c1","getProposal(uint256)":"c7f758a8","getProposalParams()":"1e06271f","getVotes(address,uint256)":"eb9019d4","hasVoted(uint256,address)":"43859632","initializeGovernance(uint256,uint256,uint256,uint256,uint256)":"7689ded5","propose(address,string)":"d6f0948c","queue(uint256)":"ddf0b009","setProposalThreshold(uint256)":"ece40cc1","setQuorumVotes(uint256)":"02ec8f9e","setVotingDelay(uint256)":"70b0f660","setVotingPeriod(uint256)":"ea0217cf","state(uint256)":"3e4f49e6"},"id":54}